:020000040000FA
:040000008A01F92850
:08000800F000030E8301F1007A
:100010000A08F2008A010408F300831203138B1309
:10002000831203138C1A83168C1A17282C28831218
:10003000031398182228181928282A1928281A087A
:100040005C222C28831203131812000018162C2887
:10005000831203131A082C287308840072088A007C
:10006000710E8300F00E700E831203138B170B17A3
:1000700009008207013401340134013401340134B0
:1000800001340134013401340134023402340234C5
:1000900002340234023402340334033403340334AC
:1000A000033404340434043404340534053405348E
:1000B0000634063406340734073408340834093467
:1000C00009340A340A340B340C340C340D340E3435
:1000D0000F341034113412341334143415341634EC
:1000E000183419341B341C341E3420342234243484
:1000F000263428342B342D343034333436343934E8
:100100003D344034443448344C34513456345B34F8
:10011000603466346C3473347A3481348934913485
:100120009934A334AC34B734C134CD34D934E63443
:10013000F434820712342334343446345A346E345F
:1001400084348B34B334CD34E93406342534453427
:1001500068348C34B334DC340834363467349B343C
:10016000D2340C3449348B34D03419346734B93434
:1001700010346C34CE343534A334173493341534FE
:100180009F343234CD3472342034D8349C346B34C0
:1001900046342F3425342A343F3464349A34E334DB
:1001A0003F3481343834D63480345E344B34553463
:1001B0007E34C8343434C6347F3461346F34AC3464
:1001C0001A34BC349534A934FC348F3469348C34FB
:1001D000FE340234DF345834343478342B3453341E
:1001E000F7341F34D2341934FC348534BD34B03480
:1001F0006734E4210222E523E523E523E523E52313
:10020000E523E523E5237221E523E523E523E52323
:10021000A8221323831203130510831203131C3027
:10022000A200D630A300B421A90183120313AA1996
:1002300015297622B000F030B00590303002031D51
:100240001529AA1921297622B1000000AA19262908
:100250007622B2000030B202031D4C29D7211529A5
:10026000831203138C1E32291A08B000F030B00537
:1002700090303002031D1529831203138C1E3E2972
:100280001A08B1008C1E42291A08B2000030B202CE
:10029000031D4C29D7211529831203133108392056
:1002A000A20031089920A300B421B00CB00CB00C0E
:1002B000300C0F39860083120313981C152918126D
:1002C000DE2318121529831203130510E523E523F5
:1002D000E523E523E5230514E523E523E523E523CD
:1002E000E52363298312031343227330A500F23000
:1002F000263087219C21B3218914DE23DE23183088
:10030000A10025220F3088008910DE2308008914FF
:10031000DE23DE230530A100252225088800891070
:10032000DE238914DE23DE230630A10025222608E1
:1003300088008910DE230800831203138914DE234A
:10034000DE230C30A1002522250888008910DE2339
:100350008914DE23DE230D30A10025222608880023
:100360008910DE2308000800831203138914DE239A
:10037000DE23831203130130A10025222208880006
:100380008910DE238914DE23DE230030A10025221C
:10039000230888008910DE238914DE23DE2304303D
:1003A000A1002522213088008910DE230800831255
:1003B00003138914DE23DE230430A1002522C008A4
:1003C00088008910DE2308008316031367308F002E
:1003D0008316031381120111811001108316031378
:1003E00008308500860198308700880189018316CE
:1003F00003178801890183120313051054229422E4
:10040000E5230800831203130710871087121F22A9
:10041000080083120313871600000714000007105A
:10042000080083120313871200000714000007104E
:10043000080083120313871400008710080083123A
:10044000031305100000051408001F228312031374
:10045000871221180922211C11228712A1180922B2
:10046000A11C1122871221190922211D1122871294
:10047000A1190922A11D11228712211A0922211E68
:10048000112219220800831203130030A1008914DD
:10049000DE23DE23252288018910DE23A10A1930FC
:1004A0002102031D472A080083120313A030AB006A
:1004B000AC002A11AA150800831203132A19752A01
:1004C000AF00AF1F652AAF00B30083132C08840070
:1004D0002F088000AF302C06A030031D2C0AAC0082
:1004E0002B0203192A15AA1108000800831203130E
:1004F000AA198F2A83168C12831283132B08840067
:10050000AF302B06A030031D2B0AAB002A112C069E
:100510000319AA15000883168C1683120800831687
:1005200003138C1683120034831603178801890184
:100530008316031300309A000130990018128C16AC
:100540008B170B171812831203139817181608002D
:100550008312031328309400831603138030940011
:100560008316031309309300080083120313051444
:100570008316031311140D23700809230D2383160A
:100580000313111B042B710809230D238316031376
:10059000111B042B720809230D2383160313111B4F
:1005A000042B8316031311150D2383120313051057
:1005B00008008312031305148316031311140D236B
:1005C000700809230D2383160313111B042B7108D4
:1005D00009230D2383160313111B042B740809230D
:1005E0000D2383160313111B042B730809230D23FA
:1005F00083160313111B042B8316031311150D23EC
:1006000083120313051008008316031311150D231D
:1006100063298312031393000034831203138C1D88
:100620000F2B8C110034831603134030F0000A3076
:10063000F1001030F200B5224030F0000030F1003F
:100640000030F200B5224030F0000130F1000030FF
:10065000F200B5224030F0000030F4000030F3002A
:10066000D9224030F0001230F1003830F40002306E
:10067000F300D922DE234030F0001330F1000030C7
:10068000B5224030F0001230F1000D30F40002309D
:10069000F300D922DE234030F0001330F1000030A7
:1006A000B5224030F0001230F1000630F400023084
:1006B000F300D922DE234030F0001330F100003087
:1006C000B5224030F0001230F1000130F400023069
:1006D000F300D922DE234030F0001330F100003067
:1006E000B5224030F0001230F1000230F400023048
:1006F000F300D922DE234030F0001330F100003047
:10070000B5220800F4004030F0001230F100033050
:10071000F300D922DE234030F0001330F100003026
:10072000B52208008030F80740307718F80780308D
:100730004030F0001230F1007808F4000230F3008D
:10074000D922DE234030F0001330F1000030B52212
:100750000800B700B6233030B6020319B12B3608B3
:10076000822335088223340882230800831203136E
:100770000030B400B500B6003708B8003808B9003A
:100780006430B802031CC82BB60A031DBE2BD92B3C
:100790003908B8003808B9000A30B802031CD72B52
:1007A000B50A031DCA2BD42B0030B400D92B39084D
:1007B000B4003030B607B507B40708004730F6007C
:1007C000F60BE02BF60BE22B0800DE23DE23DE2304
:1007D000DE23DE23DE23DE23DE23DE23DE23DE2311
:1007E000DE23DE23DE23DE23DE23DE23DE23DE2301
:1007F000DE23DE23DE23DE23DE23DE23DE23DE23F1
:10080000DE23DE23DE23DE23DE23DE23DE23DE23E0
:10081000DE23DE23DE23DE23DE23DE23DE23DE23D0
:10082000DE23DE23DE23DE23DE23DE23DE23DE23C0
:10083000DE23DE23DE23DE23DE23DE23DE23DE23B0
:10084000DE23DE23DE23DE23DE23DE23DE23DE23A0
:10085000DE23DE23DE23DE23DE23DE23DE23DE2390
:04086000DE2308008B
:02400E00D520BB
:02401000FF3E71
:00000001FF
